{
  "_format": "hh-sol-artifact-1",
  "contractName": "Greeter",
  "sourceName": "contracts/Greeter.sol",
  "abi": [
    {
      "inputs": [
        {
          "internalType": "string",
          "name": "_greeting",
          "type": "string"
        }
      ],
      "stateMutability": "nonpayable",
      "type": "constructor"
    },
    {
      "stateMutability": "payable",
      "type": "fallback"
    },
    {
      "inputs": [],
      "name": "getValue",
      "outputs": [
        {
          "internalType": "uint256",
          "name": "",
          "type": "uint256"
        }
      ],
      "stateMutability": "view",
      "type": "function"
    },
    {
      "inputs": [],
      "name": "greet",
      "outputs": [
        {
          "internalType": "string",
          "name": "",
          "type": "string"
        }
      ],
      "stateMutability": "view",
      "type": "function"
    },
    {
      "inputs": [
        {
          "internalType": "string",
          "name": "_greeting",
          "type": "string"
        }
      ],
      "name": "setGreeting",
      "outputs": [],
      "stateMutability": "payable",
      "type": "function"
    },
    {
      "inputs": [
        {
          "internalType": "uint256",
          "name": "_value",
          "type": "uint256"
        }
      ],
      "name": "setValue",
      "outputs": [],
      "stateMutability": "nonpayable",
      "type": "function"
    }
  ],
  "bytecode": "0x60806040523480156200001157600080fd5b5060405162000f3638038062000f36833981810160405281019062000037919062000278565b6200006760405180606001604052806022815260200162000f1460229139826200008760201b620003f01760201c565b80600090805190602001906200007f92919062000156565b5050620004c5565b620001298282604051602401620000a0929190620002fe565b6040516020818303038152906040527f4b5c4277000000000000000000000000000000000000000000000000000000007bffffffffffffffffffffffffffffffffffffffffffffffffffffffff19166020820180517bffffffffffffffffffffffffffffffffffffffffffffffffffffffff83818316178352505050506200012d60201b60201c565b5050565b60008151905060006a636f6e736f6c652e6c6f679050602083016000808483855afa5050505050565b8280546200016490620003ea565b90600052602060002090601f016020900481019282620001885760008555620001d4565b82601f10620001a357805160ff1916838001178555620001d4565b82800160010185558215620001d4579182015b82811115620001d3578251825591602001919060010190620001b6565b5b509050620001e39190620001e7565b5090565b5b8082111562000202576000816000905550600101620001e8565b5090565b60006200021d620002178462000362565b62000339565b9050828152602081018484840111156200023657600080fd5b62000243848285620003b4565b509392505050565b600082601f8301126200025d57600080fd5b81516200026f84826020860162000206565b91505092915050565b6000602082840312156200028b57600080fd5b600082015167ffffffffffffffff811115620002a657600080fd5b620002b4848285016200024b565b91505092915050565b6000620002ca8262000398565b620002d68185620003a3565b9350620002e8818560208601620003b4565b620002f381620004b4565b840191505092915050565b600060408201905081810360008301526200031a8185620002bd565b90508181036020830152620003308184620002bd565b90509392505050565b60006200034562000358565b905062000353828262000420565b919050565b6000604051905090565b600067ffffffffffffffff82111562000380576200037f62000485565b5b6200038b82620004b4565b9050602081019050919050565b600081519050919050565b600082825260208201905092915050565b60005b83811015620003d4578082015181840152602081019050620003b7565b83811115620003e4576000848401525b50505050565b600060028204905060018216806200040357607f821691505b602082108114156200041a576200041962000456565b5b50919050565b6200042b82620004b4565b810181811067ffffffffffffffff821117156200044d576200044c62000485565b5b80604052505050565b7f4e487b7100000000000000000000000000000000000000000000000000000000600052602260045260246000fd5b7f4e487b7100000000000000000000000000000000000000000000000000000000600052604160045260246000fd5b6000601f19601f8301169050919050565b610a3f80620004d56000396000f3fe6080604052600436106100435760003560e01c8063209652551461004f578063552410771461007a578063a4136862146100a3578063cfae3217146100bf57610044565b5b61004c6100ea565b50005b34801561005b57600080fd5b50610064610245565b6040516100719190610824565b60405180910390f35b34801561008657600080fd5b506100a1600480360381019061009c919061070e565b610254565b005b6100bd60048036038101906100b891906106cd565b610260565b005b3480156100cb57600080fd5b506100d46100ea565b6040516100e1919061077f565b60405180910390f35b60606101b56040518060400160405280601881526020017f5b477265657465725d2067726565742063616c6c65643a20000000000000000081525060008054610132906108fd565b80601f016020809104026020016040519081016040528092919081815260200182805461015e906108fd565b80156101ab5780601f10610180576101008083540402835291602001916101ab565b820191906000526020600020905b81548152906001019060200180831161018e57829003601f168201915b50505050506103f0565b600080546101c2906108fd565b80601f01602080910402602001604051908101604052809291908181526020018280546101ee906108fd565b801561023b5780601f106102105761010080835404028352916020019161023b565b820191906000526020600020905b81548152906001019060200180831161021e57829003601f168201915b5050505050905090565b600061024f61048c565b905090565b61025d8161049f565b50565b61030d6040518060600160405280602381526020016109e76023913960008054610289906108fd565b80601f01602080910402602001604051908101604052809291908181526020018280546102b5906108fd565b80156103025780601f106102d757610100808354040283529160200191610302565b820191906000526020600020905b8154815290600101906020018083116102e557829003601f168201915b5050505050836104b8565b80600090805190602001906103239291906105ad565b506103ed6040518060400160405280601b81526020017f4368616e67696e67206772656574696e672066726f6d202725732700000000008152506000805461036a906108fd565b80601f0160208091040260200160405190810160405280929190818152602001828054610396906108fd565b80156103e35780601f106103b8576101008083540402835291602001916103e3565b820191906000526020600020905b8154815290600101906020018083116103c657829003601f168201915b50505050506103f0565b50565b61048882826040516024016104069291906107a1565b6040516020818303038152906040527f4b5c4277000000000000000000000000000000000000000000000000000000007bffffffffffffffffffffffffffffffffffffffffffffffffffffffff19166020820180517bffffffffffffffffffffffffffffffffffffffffffffffffffffffff8381831617835250505050610557565b5050565b6000610496610580565b60000154905090565b60006104a9610580565b90508181600001819055505050565b6105528383836040516024016104d0939291906107d8565b6040516020818303038152906040527f2ced7cef000000000000000000000000000000000000000000000000000000007bffffffffffffffffffffffffffffffffffffffffffffffffffffffff19166020820180517bffffffffffffffffffffffffffffffffffffffffffffffffffffffff8381831617835250505050610557565b505050565b60008151905060006a636f6e736f6c652e6c6f679050602083016000808483855afa5050505050565b6000807f3abe2d40db443ccb6663c610ceec8f31a931ca895e298c6718782f83656c0ea790508091505090565b8280546105b9906108fd565b90600052602060002090601f0160209004810192826105db5760008555610622565b82601f106105f457805160ff1916838001178555610622565b82800160010185558215610622579182015b82811115610621578251825591602001919060010190610606565b5b50905061062f9190610633565b5090565b5b8082111561064c576000816000905550600101610634565b5090565b600061066361065e84610864565b61083f565b90508281526020810184848401111561067b57600080fd5b6106868482856108bb565b509392505050565b600082601f83011261069f57600080fd5b81356106af848260208601610650565b91505092915050565b6000813590506106c7816109cf565b92915050565b6000602082840312156106df57600080fd5b600082013567ffffffffffffffff8111156106f957600080fd5b6107058482850161068e565b91505092915050565b60006020828403121561072057600080fd5b600061072e848285016106b8565b91505092915050565b600061074282610895565b61074c81856108a0565b935061075c8185602086016108ca565b610765816109be565b840191505092915050565b610779816108b1565b82525050565b600060208201905081810360008301526107998184610737565b905092915050565b600060408201905081810360008301526107bb8185610737565b905081810360208301526107cf8184610737565b90509392505050565b600060608201905081810360008301526107f28186610737565b905081810360208301526108068185610737565b9050818103604083015261081a8184610737565b9050949350505050565b60006020820190506108396000830184610770565b92915050565b600061084961085a565b9050610855828261092f565b919050565b6000604051905090565b600067ffffffffffffffff82111561087f5761087e61098f565b5b610888826109be565b9050602081019050919050565b600081519050919050565b600082825260208201905092915050565b6000819050919050565b82818337600083830152505050565b60005b838110156108e85780820151818401526020810190506108cd565b838111156108f7576000848401525b50505050565b6000600282049050600182168061091557607f821691505b6020821081141561092957610928610960565b5b50919050565b610938826109be565b810181811067ffffffffffffffff821117156109575761095661098f565b5b80604052505050565b7f4e487b7100000000000000000000000000000000000000000000000000000000600052602260045260246000fd5b7f4e487b7100000000000000000000000000000000000000000000000000000000600052604160045260246000fd5b6000601f19601f8301169050919050565b6109d8816108b1565b81146109e357600080fd5b5056fe4368616e67696e67206772656574696e672066726f6d202725732720746f2027257327a2646970667358221220bc16f0f74a98fe1486c5ba5bf8d8a11f91dd5516259e462a39534b3ce02eae7864736f6c634300080400334465706c6f79696e67206120477265657465722077697468206772656574696e673a",
  "linkReferences": {},
  "deployedLinkReferences": {}
}